:100000000C9450050C94B1050C949A080C94B1050D
:100010000C94B1050C94B1050C94B1050C94B10588
:100020000C94B1050C94B1050C942E160C94B105EA
:100030000C94DD230C94B1050C94B1050C94B1051E
:100040000C94B1050C94B1050C94B1050C94B10558
:100050000C94B1050C9432240C94B1050C94B105A8
:100060000C94B1050C94B1050C94B1050C94B10538
:100070000C94B1050C94B1050C94B1050C94B10528
:100080000C94B1050C94B1050C94B1050C94B10518
:100090000C94B1050C94B1050C94B1050C94B10508
:1000A0000C94B1050C94B1050C94B105820A840A34
:1000B000900A900A900A900A900A900A860A880A82
:1000C0008A0A900A900A840A920A900A900A4C0AB4
:1000D000820A900A900A880A900A900A900A900A66
:1000E000900A900A8A0A820A6E0A900A720A900A94
:1000F000900A900A4E0A860A900A900A7C0A900A90
:10010000900A900A500A8E0A900A700A900A840A8D
:10011000900A900A800A740A900A760A880A900A5D
:10012000900A900A7E0A780A900A900A900A900A29
:10013000900A900A900A7A0A900A520A900A900A43
:10014000860A900A900A8E0A900A900A900A900AEB
:10015000900A900A900A900A900A540A900A900A0B
:10016000900A7C0A900A900A900A900A900A900AD3
:10017000900A900A900A900A560A900A580A5A0A57
:10018000900A900A900A5C0A5E0A600A900A620A63
:10019000640A900A900A900A8C0A660A900A6A0A0F
:1001A000680A6C0A900A900A900A900A8E0AB60AA7
:1001B000C40AD00AD00AA80AD00AD00AD00AD00AA3
:1001C000D00AD00AD00AD00AD00AD00AD00AD00A5F
:1001D000D00AAA0AD00AAC0AD00AD00AD00AD00A99
:1001E000C80AD00ADF0AC60AD00AD00AD00AD00A42
:1001F000D00AD00AD00AD00AD00AD00AD00AD00A2F
:10020000D00AA00ABC0AAE0AC00AD00AB00AD00AB4
:10021000B40AD00ABE0AB20AC20AB80ABA0AD00A96
:10022000D00AD00AD00AD00AD00AD00AA20AA40A58
:10023000A60ACA0ACC0AD00AD00AD00ACE0AAE0B45
:10024000CC0BD80BFC0B0C0C180C340C4B0C6E0CA0
:100250008B0C160D420DBC0DEE0DD80DFF0D110EC1
:10026000190E1F0E230E290E850E870E890E8B0E7A
:10027000CB0E930E930E930E8D0E8F0E910E7C145B
:10028000A3149B15A3149B15EF1412159B15691548
:100290007815F419F4191E1A1E1A791AA41CA41C34
:1002A000A41CAD1AA41C981B981B5E1CA41C731CD8
:1002B000911C007B46010203763A687F6577482BE4
:1002C000353B6978796439141E3C6A7A1D16041A24
:1002D0001F3D6B061B070821203E6C2C19091715C2
:1002E000223F6D11050B0A1C23406E7E100D182451
:1002F00025416F360E0C122726427037380F331304
:100300002D43717534322F2E44727C7D2830317428
:10031000457351504A524D492A5466594F5C5F4CBF
:100320004B4E62635A5D5E60295367585B56576156
:1003300047554842403E3C3A3B456843413F3D2B90
:10034000357E697A790078141E7C6A7B1D16041A42
:100350001F7F6B061B070821204D6C2C19091715F0
:10036000224A6D11050B0A1C234C6E49100D1824EE
:1003700025516F360E0C1227264F7037380F331366
:100380002D52717534502F2E4E72397D28306531C3
:100390004B735464586776012A773259745C5F66F0
:1003A000020362635A5D5E60295344575B56556190
:1003B000474680291E1F20212223242526272D2E53
:1003C0002A2B141A0815171C180C12132F30287812
:1003D000041607090A0B0D0E0F33343579311D1B36
:1003E00006190511103637387D557A2C393A3B3CC1
:1003F0003D3E3F4041424353475F6061565C5D5E16
:1004000057595A5B62634648324445677B7F6503B0
:1004100001025250514F68696A6B6C6D6E6F70715A
:10042000725800494C754A4D734B4E767C777E74FA
:10043000665472253032582000623A2530345820F4
:1004400000652530325820002146554C4C212000B3
:100450002146462120007725303258200021435381
:10046000335F4630210A00214353335F52454144F4
:1004700059210A00214353325F45305F4630210A3B
:1004800000214353325F4630210A00214353325F3B
:100490004530210A00214353325F494E4954210A15
:1004A00000214353315F45305F25303258210A0027
:1004B0000A5B4F56525D20004C2575200053257570
:1004C00020000A49443A2530345828256429200060
:1004D0004D6F7573653A206E6F7420737570706F11
:1004E000727465640A005225752000572575200036
:1004F0005725752000572575200058257520004187
:100500002575200049257520005B4348475D200084
:100510000A5052543A25303258204953523A253025
:10052000345820005B5253545D20000A4552523A21
:1005300025303258204953523A2530345820000A89
:100540004B6579626F6172642073746172742E0AF4
:10055000000A55534220636F6E6669677572656461
:100560002E0A000A0A544D4B3A3763383064316220
:10057000362F4C5546410A0A003403490042004DCB
:100580000020005000430020006B006500790062ED
:10059000006F00610072006400200063006F006E55
:1005A0000076006500720074006500720000000EA5
:1005B0000374002E006D002E006B002E000000045E
:1005C00003090409027400040100A03209040000B8
:1005D000010301010009211101000122400007056A
:1005E000810308000A090401000103000000092139
:1005F000110100012236000705820308000A0904E0
:100600000200020300000009211101000122220062
:1006100007058303200001070503032000010904E7
:10062000030001030000000921110100012239002B
:10063000070584032000011201100100000008EDED
:10064000FEEE1B01000102000105010906A10105E2
:100650000719E029E71500250195087501810205B4
:1006600008190129059505750191029501750391F8
:10067000010507190029F71500250195F875018175
:1006800002C00631FF0974A1010975150026FF009B
:100690009520750881020976150026FF00952075C2
:1006A000089102C005010980A101850216010026FA
:1006B00037001A81002AB700751095018100C00526
:1006C0000C0901A1018503160100269C021A0100F4
:1006D0002A9C02751095018100C005010906A1013F
:1006E000050719E029E71500250195087501810224
:1006F0009501750881010508190129059505750100
:1007000091029501750391010507190029FF150054
:1007100026FF00950675088100C0636F6E73756DC6
:1007200065723A20253034580A0073797374656D08
:100730003A20253034580A000A002530325820006B
:100740006B6579626F6172643A20004C45443A20CF
:10075000253032580A00253032583A202530386288
:1007600025730A00722F6320303132333435363727
:100770000A0064656C5F6B65795F6269743A206337
:10078000616E27742064656C3A20253032580A0067
:100790006164645F6B65795F6269743A2063616E5E
:1007A0002774206164643A20253032580A003F00E3
:1007B000433E20004C25640A000A092D20436F6E39
:1007C000736F6C65202D0A4553432F713A0971757B
:1007D00069740A000A092D204D61676963202D0A9A
:1007E000643A0964656275670A783A0964656275F6
:1007F00067206D61747269780A6B3A096465627585
:1008000067206B6579626F6172640A6D3A0964658D
:10081000627567206D6F7573650A763A0976657241
:1008200073696F6E0A733A097374617475730A633E
:100830003A09636F6E736F6C65206D6F64650A3083
:100840002D343A096C61796572302D342846313087
:100850002D4634290A506175733A09626F6F746CC2
:100860006F616465720A6E3A094E4B524F0A003F3F
:10087000004E4B524F3A206F66660A004E4B524F65
:100880003A206F6E0A0074696D65725F726561640B
:10089000333228293A202530346C580A006B6579A8
:1008A000626F6172645F6E6B726F3A2025580A0046
:1008B0006B6579626F6172645F69646C653A20256B
:1008C000580A006B6579626F6172645F70726F7451
:1008D0006F636F6C3A2025580A00686F73745F6B02
:1008E0006579626F6172645F6C65647328293A2070
:1008F00025580A000A092D20537461747573202D40
:100900000A004743433A20352E342E3020415652B8
:100910002D4C4942433A20322E302E30204156523F
:100920005F415243483A20617672350A004F505475
:10093000494F4E533A204C55464120455854524158
:100940004B455920434F4E534F4C4520434F4D4D3F
:10095000414E44204E4B524F204B45594D41505F24
:1009600053454354494F4E20424F4F544C4F4144FE
:1009700045525F53495A450A004255494C443A2072
:100980003763383064316236202831333A31393AAE
:100990003433204D61792032322032303230290A0E
:1009A000005649443A2030784645454428742E6D17
:1009B0002E6B2E29205049443A20307831626565EB
:1009C0002849424D205043206B6579626F61726403
:1009D00020636F6E76657274657229205645523AAF
:1009E000203078303030310A00444553433A206398
:1009F0006F6E766572742049424D205043206B65BE
:100A000079626F61726420746F205553420A000A44
:100A1000092D2056657273696F6E202D0A000A6DCC
:100A20006F7573653A206F66660A000A6D6F75739D
:100A3000653A206F6E0A000A6B6579626F617264B5
:100A40003A206F66660A000A6B6579626F617264AC
:100A50003A206F6E0A000A6D61747269783A206FED
:100A600066660A000A6D61747269783A206F6E0AD0
:100A7000000A64656275673A206F6E0A000A646551
:100A80006275673A206F66660A000A0A626F6F74C1
:100A90006C6F616465722E2E2E2000433E20000094
:100AA00011241FBECFEFDAE0DEBFCDBF04B603FED8
:100AB00041C08091880390918903A0918A03B091ED
:100AC0008B038730904BA740B04BA1F51092880361
:100AD0001092890310928A0310928B0314BE0FB6F2
:100AE000F894A895809160008861809360001092CE
:100AF00060000FBE1092010810920008E3E0F0E0E1
:100B000089E080935700E491E695E370E150E3308B
:100B100040F4F0E0EE0FFF1FE35DFE4F8081918116
:100B200002C080E090E1E0E0F0E8E81BF90BF69508
:100B3000E795099511E0A0E0B1E0EEE6FCE402C023
:100B400005900D92A433B107D9F723E0A4E3B1E0F7
:100B500001C01D92A838B207E1F70E9491110C94D0
:100B600035260C940000FF93EF93E0913401F0914F
:100B70003501309709F00995EF91FF910895FC0137
:100B80008591803011F0EFDFFBCF0895FF27E0E281
:100B900030E247FF0CC0419597FF09C0EDE2609538
:100BA000709580959095611D711D811D911D27FF88
:100BB00002C0219530E350E2AA27660F771F881FF5
:100BC000991FAA1FA41710F0A41B63955A95A9F7A3
:100BD000AA3008F0A95FA05DAF93F3956115710588
:100BE0008105910541F7ED3211F4EF93F395F2177A
:100BF00018F43F93F395FBCF8F91B5DFFA95E1F7AA
:100C00000895E991F9918591803021F0853219F0AC
:100C1000AADFF9CF089520E0E89455915532C1F349
:100C2000503311F4689455915A3348F4505390F36B
:100C3000220F022E220F220F200D250FF4CF0EF4CB
:100C4000219589919991533619F3533729F15335E9
:100C500059F1BC0188279927E8945C3621F48991E1
:100C6000999168945591543639F446EF7EF077FFA8
:100C70000DC08FEF9FEF0AC055374AE039F0583565
:100C800040E121F0523642E009F00895FF93EF93DE
:100C90007DDFEF91FF91B7CFFF93EF93FC0181913F
:100CA0008030B9F360DFFBCFFF93EF9368DFF1CFC4
:100CB000DF93CF93CDB7DEB72596A3DFCF91DF913A
:100CC0000895282F80914101823071F08330B1F076
:100CD000813001F5E62FF0E038E0739FE00DF11D63
:100CE0001124EE54FC4F13C0E62FF0E088E0789F0B
:100CF000E00DF11D1124EE5CFC4F09C0E62FF0E081
:100D000038E0739FE00DF11D1124EE54FD4FE49186
:100D1000E03819F480E090E008959E2F9077892FB5
:100D200090E034E0959587953A95E1F738E0239F78
:100D3000800D911D112444E0880F991F4A95E1F719
:100D4000EF709C012E0F311DF901EE0FFF1FE050D7
:100D5000F8498591949108955998519A0895519818
:100D6000599A08955898509A08955098589A089505
:100D70005198599A85E08A95F1F7000089B18695D6
:100D8000817008955098589A85E08A95F1F700008F
:100D900089B181700895CF93DF93EC010E94B8066A
:100DA000882341F0209731F085E08A95F1F7000023
:100DB0002197F4CFCE01DF91CF910895CF93DF93A8
:100DC000C2E3D0E00E94B806811108C0209731F03C
:100DD00085E08A95F1F700002197F4CFCE01DF91ED
:100DE000CF91089584B18F6084B985B18F6085B942
:100DF0002E9826982F9827980E94AC060E94B50638
:100E0000E9E6F0E0808188608083E9980895E19ABE
:100E1000E99A0E94AF060C94B506E9980E94AC06C8
:100E20000C94B506CF93DF932FB7F894C0910201CD
:100E3000D0910301CE01882781159F4F19F080E0E2
:100E40009FEF02C08FEF90E08C2B9D2B90930301BE
:100E5000809302012FBFCE0199278F3F910581F525
:100E6000CD2FDD27C03FD10551F0CF3FD10509F48B
:100E700051C080917503C034D10599F407C08091A9
:100E8000750380FF33C080E594E004C080FF2EC06E
:100E900088E494E09F938F930E9458060F900F90E0
:100EA00025C080FF37C0DF93CF9381E494E09F9308
:100EB0008F930E9458060F900F900F900F902AC0AA
:100EC000CE018F6F019699F08091750380FF0CC061
:100ED000DF93CF9389E394E09F938F930E9458060A
:100EE0000F900F900F900F90CD2F01C0CFEF8091FA
:100EF000750380FF0CC01F92CF9382E394E09F9311
:100F00008F930E9458060F900F900F900F908C2F88
:100F100090E002C08FEF9FEFDF91CF910895CF93C4
:100F2000CAE1C15069F00E9412078F3F2FEF92076C
:100F300049F48FE99FE00197F1F700C00000F1CF7D
:100F40008FEF9FEFCF91089510923A0110923901DF
:100F5000109238011092370180E090E890930101DF
:100F6000809300018FEF9FEF909303018093020124
:100F70000895EF92FF920F931F93CF93DF93082F63
:100F8000109237018091750380FF0CC01F920F9360
:100F900086E594E09F938F930E9458060F900F90E0
:100FA0000F900F90E9980E94AC060E94B5068FE85A
:100FB00091E00197F1F700C000000E94B2068FE8AF
:100FC00091E00197F1F700C000000E94AF0680E1B8
:100FD00097E20E94CB06892B11F481E07FC0C0E02C
:100FE000D0E0FF24F39410E0EE24E39490E59A958A
:100FF000F1F7C8010C2E02C0959587950A94E2F787
:1010000080FF04C0FE240E94B50602C00E94B20602
:101010000E94DE06892B11F482E060C082E390E03A
:101020000E94CB06892B11F483E058C02196C8306A
:10103000D105E1F680E58A95F1F7FF2019F00E94CD
:10104000B50602C00E94B2060E94DE06892B11F48A
:1010500084E044C082E390E00E94CB06892B11F427
:1010600085E03CC090E59A95F1F70E94B5060E9494
:10107000DE06892B11F486E031C082E390E00E9405
:10108000CB06892B19F0C2E3D0E009C087E026C067
:10109000209759F025E02A95F1F7000021970E944A
:1010A000C2068111F5CFCD2B11F488E017C00E9444
:1010B000DE06892B19F0C2E3D0E009C089E00EC03A
:1010C000209759F085E08A95F1F7000021970E945A
:1010D000C2068823A9F3CD2BB9F48AE080933701A7
:1010E000809137018061809337010E94AF060E9492
:1010F000B506E19AE99A8FEF9FEFDF91CF911F91AB
:101100000F91FF90EF9008958FEF9FEF9093030161
:10111000809302010E94A4070E94AF060E94B506B8
:10112000E19AE99ADF91CF911F910F91FF90EF9093
:101130000C948F072F9329B1189A1F920F920FB614
:101140000F9211243F934F935F938F939F939091AE
:1011500076034091000150910101411580E8580744
:1011600019F49093360113C080913601981779F0E5
:101170008F5F981761F08091000190910101909329
:101180003A018093390180E280933701E8C0809171
:1011900000019091010196958795909301018093AC
:1011A000000120FF09C08091000190910101906829
:1011B00090930101809300018091000190910101C1
:1011C00099278038910509F40AC1A8F48032910565
:1011D00009F405C138F4009709F401C1409709F4F6
:1011E00090C0B2C08034910509F4F9C080359105F2
:1011F00009F487C0A9C0803C910589F040F480398A
:10120000910509F47EC0803A910559F09DC0803D5A
:10121000910509F476C0803E910589F195C084E678
:1012200007C084E647C095E09A95F1F70000815029
:10123000499908C08111F7CF05C095E09A95F1F75B
:1012400000008150499B03C08111F7CF02C081117A
:10125000C6C0809100019091010190933A01809362
:1012600039018091000190910101892F9927909374
:1012700001018093000182E2809338017BC080915C
:1012800000019091010190933A018093390180917E
:10129000000190910101892F99279093010180937A
:1012A000000183E28093380165C095E09A95F1F7DB
:1012B00000008150499908C08111F7CF05C095E021
:1012C0009A95F1F700008150499B03C08111F7CF37
:1012D00002C0811184C0809100019091010190931E
:1012E0003A01809339018091000190910101892F89
:1012F0009927909301018093000181E28093380146
:1013000039C0809100019091010190933A0180933E
:101310003901809100019091010197FF04C080E1A3
:101320008093380103C081E18093380180910001EE
:101330009091010126E0969587952A95E1F7909383
:1013400001018093000116C080910001909101017C
:1013500090933A018093390180E88093370180911E
:10136000370190E0982F88278F6F90930301809327
:1013700002012FC0809100019091010199278F3FB8
:10138000910521F480EF80933701E9CF809103012B
:101390008F3F41F0809102018F3F21F080E48093E4
:1013A0003701DDCF8091020190910301982F8827AA
:1013B000909303018093020120910001309101017B
:1013C0008091020190910301822B909303018093FD
:1013D000020180E090E890930101809300019F91C9
:1013E0008F915F914F913F910F900FBE0F901F9083
:1013F000189A2F911895CF93C82F8DEE0E94B90798
:101400008A3F910521F48C2FCF910C94B907CF918D
:101410000895E82FE695E695E695EF70F0E0EB5B32
:10142000FE4F4081282F277081E090E002C0880F96
:10143000991F2A95E2F7242F30E028233923232B04
:1014400011F4842B80830895E82FE695E695E695C0
:10145000EF70F0E0EB5BFE4F2081382F377081E0BA
:1014600090E002C0880F991F3A95E2F7422F50E0B2
:1014700048235923452B19F08095822380830895B2
:10148000482F50E0FA013397E138F10508F048C0E1
:10149000EA5AFF4F0C942F2687E108958FE10895B3
:1014A0008CE5089580E6089582E6089587E2089520
:1014B00083E508958FE2089589E3089587E3089509
:1014C0008FE3089587E408958FE4089586E50895ED
:1014D0008EE508958FE7089580E0089585E60895E4
:1014E0008EE608958FE6089580E3089588E30895D1
:1014F00080E4089588E4089580E5089587E50895D7
:101500008FE5089588E1089588E0089580E20895C0
:1015100080E1089589E108958DE6089588E20895AF
:101520008F7708958FE00895CF93482F50E0FA0108
:101530007C97E834F105A0F5E952FF4F0C942F2673
:1015400085E53EC08AE53CC08BE53AC08CE538C0F5
:101550008DE536C08EE534C08FE532C080E630C000
:1015600081E62EC082E62CC083E62AC08FE628C022
:1015700081E726C082E724C084E722C085E720C037
:1015800087E71EC088E71CC08AE71AC08CE718C02E
:101590008FE716C080E714C089E712C08BE710C040
:1015A000C82F1F928F9381EA94E09F938F930E949C
:1015B00058060F900F900F900F908C2F01C084E56C
:1015C000CF9108950F931F93CF93DF930E940B2425
:1015D0008C010E941207EC01019631F4C8010E94AF
:1015E0002324843F9140A8F3CE01DF91CF911F9136
:1015F0000F9108950E94F2060C94070780917503DD
:10160000816080937503E5E4F1E0119281E0E535B6
:10161000F807D9F70895E82FF0E0EB5BFE4F8081E3
:101620000895E5E4F1E0119281E0E535F807D9F796
:101630000895982F80914101823048F092FB8827CD
:1016400080F990FD826091FD84600C94FB090895FF
:10165000CF93DF9380913701882371F18091390115
:1016600090913A01209137019F938F931F922F936E
:101670008BE295E09F938F930E94580680913701EB
:1016800080750F900F900F900F900F900F9071F446
:10169000809140018B3051F484E295E09F938F93C9
:1016A0000E945806109240010F900F90109237013F
:1016B00010923A011092390180913801882309F47F
:1016C00040C090913801809144019817D1F18091E8
:1016D000390190913A01209138019F938F931F9285
:1016E0002F9380E195E09F938F930E9458068091FD
:1016F00044010F900F900F900F900F900F9085FF67
:1017000004C09091380194FD06C084FF12C08091FE
:10171000380185FF0EC0809140018B3051F489E083
:1017200095E09F938F930E945806109240010F906E
:101730000F90809138018093440110923A011092E9
:101740003901E09140018E2F90E08C30910508F036
:1017500026C3FC01E15EFE4F0C942F260E940D076C
:101760000E940B249F938F9384E095E09F938F9327
:101770000E945806109241011092430110924201BA
:101780000E94110B0E94A4190E940B2490933F0108
:1017900080933E0181E065C080913E0190913F01C0
:1017A0000E942324893E934008F4F9C282E031C0AC
:1017B0000E94A4070E9407078FE99FE00197F1F7B5
:1017C00000C000008FEF0E94B9078A3F910511F415
:1017D00086E001C083E0809340010E940B249F9328
:1017E0008F938FEF94E09F938F930E9458060F90F2
:1017F0000F900F900F90D3C20E940D072E98269A3B
:101800002F98279A0E940B2490933F0180933E01CA
:1018100084E080934001C3C280913E0190913F01DA
:101820000E942324853F914008F4B9C285E0F1CF9E
:101830002E9826982F9827980E94A4070E940707A1
:101840000E940B249F938F938AEF94E09F938F9332
:101850000E9458060E940B2490933F0180933E0102
:1018600086E080934001C3CF0E941207019609F4DD
:1018700096C20E940B249F938F9385EF94E09F93D1
:101880008F930E9458060E940B2490933F018093EF
:101890003E0187E0E6CF80913E0190913F010E949A
:1018A0002324853F914018F089E0809340010E94F5
:1018B0001207019609F473C20E940B249F938F9321
:1018C00080EF94E09F938F930E9458060E940B2410
:1018D00090933F0180933E0188E0C3CF80913E0109
:1018E00090913F010E942324853F914018F089E0A8
:1018F000809340010E941207019609F450C20E9491
:101900000B249F938F938BEE94E09F938F930E9471
:10191000580689E0A6CF82EF0E94B9078F3F2FEFCC
:10192000920789F08A3F910589F40E94E20A8F3F6D
:101930003FEF930771F0D82FCC270E94E20A9E0157
:10194000282BC90108C08FEF9FEF05C08EEF9FEFD6
:1019500002C080E090E090934301809342010E9496
:101960000B249F938F9386EE94E09F938F930E9416
:10197000580680914201909143010F900F900F9073
:101980000F90009711F482E02BC08F3F3FEF930739
:1019900011F481E025C08E3F2FEF9207A1F38F3F16
:1019A000910559F480ED94E09F938F930E9458061F
:1019B000109241010F900F901FC09C0125583B4A87
:1019C0002230310580F480EF0E94B9078A3F9105EB
:1019D000D1F683E00E94B9078A3F9105A1F683E022
:1019E0008093410109C0803B3FEB9307C1F38827F7
:1019F00081159F4BA1F3C7CF809141011F928F9317
:101A0000809143018F93809142018F9382EC94E007
:101A10009F938F930E9458068AE0809340010F9015
:101A20000F900F900F900F900F90B9C10E940B2450
:101A30009F938F938DEB94E09F938F930E94580612
:101A40000F900F900F900F9080914101823029F0FC
:101A5000833039F488EF0E94B9070E941C170E9456
:101A6000190B8BE0809340010E940B249F938F936E
:101A700088EB94E09F938F930E9458060F900F90ED
:101A80000F900F900E9412079C012F3F9FEF390784
:101A900009F485C12115310519F02F3F310569F48D
:101AA0000E94110B0E94A41980EB94E09F938F93E6
:101AB0000E9458060F900F9072C190914101923090
:101AC00009F44DC0933009F4CCC0913009F067C1DE
:101AD00090913D01923099F028F4992341F0913092
:101AE000C1F03AC0933081F1943091F135C0803E1D
:101AF00021F0813E51F482E005C081E003C08D31C8
:101B0000F9F483E080933D014AC187FFE4C08F77F9
:101B10000EC1863309F118F48A3229F41DC08A3ABD
:101B2000D9F0863BC9F087FD05C00E94940A0E9447
:101B3000090A12C08F770E94940A0E94240A0CC0DE
:101B40008D3951F484E0DECF853431F485E5C3C0AE
:101B5000853411F485E5EBC010923D0120C1E09180
:101B60003C014E2F50E04930510508F077C0FA0192
:101B7000E55DFE4F0C942F26803E69F030F48338EB
:101B800071F0843871F48FE757C0813E31F0803FA7
:101B900041F481E05BC082E059C084E057C082E03C
:101BA0004BC087FF98C00E94110B85E994E098C054
:101BB000893509F453C0803F19F0823119F44EC0C1
:101BC00083E044C010923C0187FD03C00E94400A9C
:101BD00082C00E94110B8BE894E082C0833821F010
:101BE000843821F48FE738C082E036C010923C017F
:101BF00087FF9DC00E94110B81E894E071C0109294
:101C00003C01823109F4CBC0893509F4C8C087FD95
:101C100003C00E94400A8BC00E94110B84E794E02D
:101C20005FC0843121F0803FC9F486E00FC085E0B9
:101C30000DC0873799F480E00E94090A0FC08431F3
:101C400069F487E003C0803F49F488E080933C0159
:101C5000A6C0873719F480E00E94240A10923C0144
:101C60009EC090913B01913009F443C038F092300E
:101C700009F463C0933009F47FC091C0863809F13C
:101C800068F48338D1F020F4803819F582E06CC014
:101C90008438A9F08538E9F48BE01DC08C38A9F0B0
:101CA00030F4873881F08B38A1F481E014C08D388E
:101CB00071F0803F71F481E057C082E00CC08FE783
:101CC0000AC086E008C080E006C089E004C08AE05F
:101CD00002C087FD03C00E94090A61C087E694E044
:101CE0009F938F930E9458060F900F90109240017F
:101CF00056C0482F50E0FA01E358F109EB30F105E6
:101D000090F4EC5CFE4F0C942F2682E045C08FE7E8
:101D100043C08BE041C086E03FC081E03DC089E028
:101D20003BC08AE039C010923B0187FD03C00E948E
:101D3000240A35C08DE594E0D3CF853279F030F4B4
:101D4000863171F08E3199F480E00BC0863221F03B
:101D5000803F69F483E008C08DE503C083E501C0DE
:101D600081E50E94090A05C080933B0118C00E94CA
:101D7000110B10923B0113C08E3169F020F48631B3
:101D8000B1F781E509C0853221F0863281F78DE512
:101D900003C083E501C080E00E94240AEACF81E00D
:101DA000DF91CF9108958091790208950895CF939E
:101DB000DF9300D01F92CDB7DEB720917F03243090
:101DC00021F523E029839B838A8382E08093E900C5
:101DD0008FEF9091E800815095FD06C095ED9A95A2
:101DE000F1F700008111F5CF8091E80085FF0DC06B
:101DF00040E050E063E070E0CE0101960E9447139E
:101E00008091E8008E778093E8000F900F900F90FC
:101E1000DF91CF910895CF93DF9300D01F92CDB77C
:101E2000DEB720917F03243029F522E029838058F2
:101E300091099B838A832093E9008FEF9091E800BA
:101E4000815095FD06C095ED9A95F1F7000081113E
:101E5000F5CF8091E80085FF0DC040E050E063E0E1
:101E600070E0CE0101960E9447138091E8008E77C2
:101E70008093E8000F900F900F90DF91CF9108951D
:101E8000CF93DF93EC0190917F03943009F048C029
:101E9000809114018823D9F0809115018823B9F02D
:101EA0009093E90081E8815049F09091E80095FD18
:101EB00005C09AE29A95F1F700C0F5CF8091E8004D
:101EC00085FF2EC040E050E060E270E019C081E084
:101ED0008093E90081E8815059F09091E80095FDE8
:101EE00007C0EFE3F1E03197F1F700C00000F3CF56
:101EF0008091E80085FF14C040E050E068E070E0A9
:101F0000CE010E9447138091E8008E778093E8000D
:101F100080E2FE01A9E5B2E001900D928A95E1F719
:101F2000DF91CF910895CF93C0915701C1110BC09C
:101F30000E941724643C79408105910520F081E0DE
:101F400080935701C1E08C2FCF910895FF920F939A
:101F50001F93CF93DF93D82F0FB607FE83C08091D6
:101F60007F03843081F08091070190E001962091F9
:101F7000090130E0822393232091080130E0821789
:101F8000930709F0CDC00E94930F811110C080917A
:101F9000070190E001962091090130E0822393230C
:101FA0002091080130E08217930709F0B9C00E9420
:101FB0000B248C01C091E900CF709091EC00892F27
:101FC000817090FD80E8C82B83E08093E90085E074
:101FD000F82E8091EB0085FD42C08091EB0080FFE0
:101FE0003EC08091EE0087FF3AC080910801909139
:101FF0000701981709F457C09091E80095FF8EC02B
:10200000E0910501F0910601E80FF11D20818F5F3D
:10201000909109018923809308012093F100809118
:10202000E80085FDE2CF8091E80080FFDECF80915F
:10203000E8008E778093E800F0920401D6CF80917B
:10204000070190E001962091090130E0822393235B
:102050002091080130E08217930709F44CC0CF703B
:10206000C093E90040910701842F90E001962091F0
:10207000090130E0822393232091080130E0821788
:10208000930709F450C0E0910501F0910601E40FB7
:10209000F11DD083809107018F5F90910901892301
:1020A0008093070140C08091E80085FF37C0D0933E
:1020B000F10021E03091F3008091F20090E0932B49
:1020C000892B91F08091E80080FF0EC08091E8009C
:1020D00085FF03C01092F100F9CF8091E8008E7760
:1020E0008093E800F0920401222309F4A8CFCF7076
:1020F000C093E90018C080910401882309F4AFCF90
:102100000E940B249C018017910711F4890161CF73
:1021100090910401915090930401F8CF20E0CACF30
:1021200040910701B0CF80E0DF91CF911F910F91D7
:10213000FF90089580917E03811104C00E94B31521
:102140000C941016089510927E030895089542E0AD
:1021500061EC81E00E94C01242E061EC82E00E94EA
:10216000C01242E261EC83E00E94C01242E261ECE4
:1021700084E00C94C01280918103833009F455C02F
:1021800030F4813071F0823009F48EC008958A30C5
:1021900009F47AC08B3009F460C0893009F09CC022
:1021A00020C080918003813A09F096C08091E800B8
:1021B000877F8093E8008091840390918503892B29
:1021C00021F460E289E592E003C060E080E090E005
:1021D00070E00E9494138091E8008B778093E80070
:1021E000089580918003813209F076C08091840344
:1021F00090918503009719F0039709F06DC08091C5
:10220000E800877F8093E8008091E80082FD05C0A8
:1022100080917F038111F8CF5FC08091F10080939E
:1022200079028091E8008B7753C080918003813AD6
:1022300009F052C08091840390918503892B09F0A5
:102240004BC08091E800877F8093E8008091E80090
:1022500080FFFCCF8091140136C0809180038132D1
:10226000D9F58091840390918503892BA9F58091FC
:10227000E800877F8093E8000E94F5128091820336
:10228000809314010C94A41980918003813221F56C
:102290008091E800877F8093E8000E94F51280918A
:1022A000830380937A02089580918003813AA1F498
:1022B0008091E800877F8093E8008091E80080FFAC
:1022C000FCCF80917A028093F1008091E8008E77B4
:1022D0008093E8000C94F512089580917902809320
:1022E0005801109279020E94110B0C94A4190C94BD
:1022F0006D110E94B82380917D03882329F00E94EC
:10230000C52381110C94AA1208950E94D9238091AB
:1023100058018093790208950C94851108950C94C6
:102320008E11CF9384B7877F84BF0FB6F894A8959A
:1023300080916000886180936000109260000FBE01
:1023400090E080E80FB6F89480936100909361006C
:102350000FBE86EA9FE00E948B238AE091E00E94F4
:10236000171783E695E00E94BF050E94FA0A0E94B3
:10237000CB170E94B3150E94101678940E94CD17B7
:1023800080917F03843029F00E94FC160E948E11F8
:10239000F7CF81E595E00E94BF050E948F118FE382
:1023A00095E00E94BF05C3E080917F03853019F45A
:1023B0000E947911F9CF0E94D1172091E400309149
:1023C000E50080915501909156012817390709F4CD
:1023D00068C08091E4009091E5009093560180934D
:1023E00055010E94930F882309F45BC080917F03FD
:1023F000843009F056C08091E9008F702091EC0084
:10240000922F917020FD90E8892BC093E900909164
:10241000EB0090FF43C09091EE0097FF3FC090917A
:10242000080120910701291709F12091E80025FFF3
:102430001DC0E0910501F0910601E90FF11D308109
:102440009F5F209109019223909308013093F1003E
:102450009091E80095FDE3CF9091E80090FFDFCFE9
:102460009091E8009E779093E800D9CF9091F30087
:102470002091F20030E0392B232B81F09091E8007D
:1024800090FF0CC09091E80095FF03C01092F100FE
:10249000F9CF9091E8009E779093E8008F70809339
:1024A000E9000E94FC1680CF292F33272330310505
:1024B000C9F060F42130310581F02230310509F096
:1024C00041C084E790E023EC35E040C02132310583
:1024D000E1F02232310531F135C082E190E027E3AD
:1024E00036E034C099278130910549F028F00297F1
:1024F00049F5E9E7F5E005C0EFEBF5E002C0EFEAEA
:10250000F5E0849190E09F0121C064307105D0F422
:10251000660F771FFB01EC5DFE4F2081318189E062
:1025200090E014C06430710568F4FB01EE0FFF1FEA
:10253000E45EFE4F20813181FB01E85EFE4F808129
:1025400090E004C080E090E020E030E0FA013183C8
:102550002083089580E189BD82E189BD09B400FE30
:10256000FDCF8091D8008F7D8093D8008091E000CE
:1025700082608093E0008091E00081FDFCCF0895AF
:10258000982F973068F59093E900981739F070917B
:10259000EC002091ED005091F00003C0242F762F25
:1025A00050E021FD02C09F5FECCF3091EB003E7FF9
:1025B0003093EB003091ED003D7F3093ED00309192
:1025C000EB0031603093EB007093EC002093ED0052
:1025D0005093F0002091EE0027FDE5CF80E00895B4
:1025E0008F708093E90081E008958091800387FFD8
:1025F00011C08091E80082FD05C080917F038111A8
:10260000F8CF11C08091E8008B770BC080917F03D9
:10261000882349F08091E80080FFF8CF8091E8009E
:102620008E778093E80008952091E4003091E500D2
:1026300095E64091EC00842F817040FF23C080918B
:10264000E80080FD1DC080917F03882399F08530CC
:1026500099F08091EB0085FD11C04091E40050910C
:10266000E5002417350729F3915011F09A01E1CFC5
:1026700084E0089582E0089583E0089581E008955C
:1026800080E008954091E80042FFDDCF0895CF92A9
:10269000DF92EF92FF920F931F93CF93DF93EC01A2
:1026A0008B017A010E941413811135C0E114F104E9
:1026B00039F0F70180819181081B190BC80FD91FD0
:1026C000C12CD12C0115110529F18091E80085FD5F
:1026D00018C08091E8008E778093E8000E94FC1675
:1026E000E114F10449F0F70180819181C80ED91EEF
:1026F000D182C08285E00FC00E941413882311F399
:102700000AC089918093F10001501109FFEFCF1A9F
:10271000DF0AD8CF80E0DF91CF911F910F91FF901A
:10272000EF90DF90CF90089520918603309187033A
:102730002617370748F06115710539F42091E80034
:102740002E772093E80001C0B901FC0120E061155B
:10275000710579F180917F038823F1F18530F1F1E2
:102760008091E80083FD3CC08091E80082FD2EC08E
:102770008091E80080FFEBCF2091F3008091F20080
:1027800090E0922B6115710551F08830910538F475
:1027900021912093F100615071090196F3CF21E05E
:1027A000089709F020E08091E8008E778093E80098
:1027B000CECF2111CFCF0AC080917F03882361F053
:1027C000853061F08091E80083FD0AC08091E800C7
:1027D00082FFF2CF80E0089582E0089583E00895BB
:1027E00081E00895209186033091870326173707EB
:1027F00048F06115710539F42091E8002E77209397
:10280000E80001C0B901FC0120E06115710591F1FA
:1028100080917F03882309F440C0853009F43FC0CC
:102820008091E80083FD3DC08091E80082FD2FC0CB
:102830008091E80080FFE9CF2091F3008091F200C1
:1028400090E0922B6115710559F08830910540F4A4
:1028500024912093F1003196615071090196F2CFD5
:1028600021E0089709F020E08091E8008E778093BE
:10287000E800CBCF2111CCCF0AC080917F03882301
:1028800061F0853061F08091E80083FD0AC080919D
:10289000E80082FFF2CF80E0089582E0089583E0AF
:1028A000089581E008951F93CF93DF93CDB7DEB7EE
:1028B000AA970FB6F894DEBF0FBECDBFE0E8F3E0F5
:1028C0008091F100819323E0E838F207C9F70E9474
:1028D000BB108091E80083FF2EC18091800390910E
:1028E0008103492F50E04A30510508F024C1FA0114
:1028F000E15CFE4F0C942F26803821F0823809F0DD
:102900001AC108C080917C0390917D03992389F0BE
:1029100082600FC0809184038F70873008F00BC1F4
:102920008093E9008091EB0085FB882780F9109265
:10293000E9009091E800977F9093E8008093F10080
:102940001092F100D1C0282F2D7F09F0F4C0882308
:1029500019F0823061F0EFC080918203813009F07C
:10296000EAC0933009F080E080937D032EC080910F
:10297000820381112AC0809184038F702FEF280F6A
:10298000263008F0D8C08093E9002091EB0020FFAA
:102990001CC0933021F48091EB00806214C09091B0
:1029A000EB0090619093EB0021E030E0A90102C0C0
:1029B000440F551F8A95E2F74093EA001092EA000F
:1029C0008091EB0088608093EB001092E900809189
:1029D000E800877F8093E8000E94F512ACC0811167
:1029E000AAC0109182031F778091E3008078812B29
:1029F0008093E3008091E800877F8093E8000E9445
:102A0000F5128091E80080FFFCCF8091E3008068A0
:102A10008093E300111102C082E001C083E0809343
:102A20007F0389C08058823008F085C0809182037E
:102A3000909183038C3D53E0950779F583E08A8379
:102A40008AE289834FB7F894DE01139620E03EE0D6
:102A500051E2E32FF0E050935700E49120FF03C0D0
:102A6000E295EF703F5FEF708E2F90E0EA3010F04C
:102A7000C79601C0C0968D939D932F5F243149F76F
:102A80004FBF8091E800877F8093E8006AE270E0A2
:102A9000CE0101960E94941316C060918403709138
:102AA0008503AE014F5F5F4F0E945412BC01892B1A
:102AB00009F441C09091E800977F9093E8008981E4
:102AC0009A810E94F2138091E8008B778093E8004E
:102AD00032C0803881F58091E800877F8093E800DC
:102AE00080917B038093F1008091E8008E7772CF14
:102AF000811121C0809182039091830399270297CD
:102B0000D4F48091E800877F8093E800809182036D
:102B100080937B030E94F51280917B03811106C094
:102B20008091E30087FD02C081E001C084E08093D2
:102B30007F030E94A7108091E80083FF0AC0809164
:102B4000E800877F8093E8008091EB0080628093AB
:102B5000EB00AA960FB6F894DEBF0FBECDBFDF9193
:102B6000CF911F9108950E9421160E942916E0EE30
:102B7000F0E0808181608083E8EDF0E080818F77F4
:102B8000808319BCA7EDB0E08C918E7F8C938081FF
:102B90008F7E808310927E0308950F931F93CF93AF
:102BA000DF930E9421160E942916C8EDD0E088818B
:102BB0008F77888388818068888388818F7D8883E8
:102BC00019BC10927F0310927B0310927D03109228
:102BD0007C0300EE10E0F80180818B7F8083888188
:102BE0008160888342E060E080E00E94C012E1EEF4
:102BF000F0E080818E7F8083E2EEF0E08081816072
:102C00008083808188608083F80180818E7F8083CB
:102C1000888180618883DF91CF911F910F91089502
:102C2000E8EDF0E080818F7E8083E7EDF0E0808149
:102C30008160808384E082BF81E080937E030C9476
:102C4000CD15E8EDF0E080818E7F80831092E20068
:102C500008951092DA001092E10008951F920F92E9
:102C60000FB60F9211242F933F934F935F936F935F
:102C70007F938F939F93AF93BF93EF93FF93809135
:102C8000E10082FF0BC08091E20082FF07C08091CB
:102C9000E1008B7F8093E1000E94FB168091DA00B7
:102CA00080FF1FC08091D80080FF1BC08091DA0098
:102CB0008E7F8093DA008091D90080FF0DC080E183
:102CC00089BD82E189BD09B400FEFDCF81E080931A
:102CD0007F030E949A1005C019BC10927F030E94C6
:102CE000A3108091E10080FF19C08091E20080FF75
:102CF00015C08091E2008E7F8093E2008091E20017
:102D000080618093E2008091D80080628093D80037
:102D100019BC85E080937F030E9477118091E100C8
:102D200084FF30C08091E20084FF2CC080E189BD27
:102D300082E189BD09B400FEFDCF8091D8008F7D6E
:102D40008093D8008091E1008F7E8093E100809194
:102D5000E2008F7E8093E2008091E20081608093A8
:102D6000E20080917B03882311F084E007C080910A
:102D7000E30087FD02C081E001C083E080937F0310
:102D80000E948C118091E10083FF24C08091E200B9
:102D900083FF20C08091E100877F8093E10082E083
:102DA00080937F0310927B038091E1008E7F80935C
:102DB000E1008091E2008E7F8093E2008091E2004A
:102DC00080618093E20042E060E080E00E94C012F7
:102DD0000E94A610FF91EF91BF91AF919F918F91AB
:102DE0007F916F915F914F913F912F910F900FBE07
:102DF0000F901F9018950895CF9380917F0388239B
:102E0000A1F0C091E900CF709091EC00892F817002
:102E100090FD80E8C82B1092E9008091E80083FDC6
:102E20000E945314CF70C093E900CF9108959093FE
:102E3000800280937F020895E0917F02F0918002EA
:102E4000309721F00190F081E02D099480E0089501
:102E5000EF92FF920F931F93CF93DF93E0917F0246
:102E6000F09180023097B1F18C010280F381E02D66
:102E700009958091750382FF2DC080FF04C080E416
:102E800097E00E94BF05E80110E28AE3E82E87E0A0
:102E9000F82E8091750380FF0BC088811F928F935D
:102EA000FF92EF920E9458060F900F900F900F9094
:102EB000115021961111EDCF8091750380FF0AC04A
:102EC00088E397E0DF91CF911F910F91FF90EF90F2
:102ED0000C94BF05DF91CF911F910F91FF90EF9060
:102EE0000895CF93DF9320917D0230917E022817C1
:102EF000390709F190937E0280937D02E0917F0271
:102F0000F09180023097B9F0EC010680F781E02D56
:102F100009958091750382FF0EC080FF0CC0DF937E
:102F2000CF938AE297E09F938F930E9458060F9069
:102F30000F900F900F90DF91CF910895CF93DF9373
:102F400020917B0230917C022817390709F1909378
:102F50007C0280937B02E0917F02F09180023097A7
:102F6000B9F0EC010084F185E02D0995809175039D
:102F700082FF0EC080FF0CC0DF93CF938AE197E001
:102F80009F938F930E9458060F900F900F900F9071
:102F9000DF91CF9108950C9474180E9402240C9430
:102FA000FE0ABF92CF92DF92EF92FF920F931F9390
:102FB000CF93DF9300D000D01F92CDB7DEB70E9431
:102FC000280B02E812E0F12C8F2D0E940B0BB82E7B
:102FD000F801C080C82639F4F3940F5F1F4FF0E169
:102FE000FF12F2CF30C08091750381FD0E947518E9
:102FF000D12CEE24E3948C2D8E21F9F0D982FA8223
:1030000091E08B2D8E2109F490E09B830E940B248C
:103010008160782F9D838C8349815A816B818D815A
:103020000E94AB1849815A816B817C818D810E94FD
:10303000A323F80180818E258083D394EE0CF8E0E1
:10304000DF12D9CFC9CF8FEF89838A831B820E9479
:103050000B248160782F9D838C8349815A816B81F9
:103060008D810E94AB180E94A2230E941C17909190
:103070008102891741F10E941C178093810290916F
:10308000750392FF0EC090FF0CC01F928F938BE4CC
:1030900097E09F938F930E9458060F900F900F9088
:1030A0000F90809181020F900F900F900F900F90D2
:1030B000DF91CF911F910F91FF90EF90DF90CF9014
:1030C000BF900C94B4230F900F900F900F900F901F
:1030D000DF91CF911F910F91FF90EF90DF90CF90F4
:1030E000BF9008950C94190B0895EF92FF920F93DF
:1030F0001F93CF93DF9384E697E00E94BF05C0E063
:10310000D0E08CE2E82E81E0F82E06E517E08C2F67
:103110000E940B0B0E949023FF92EF921F928F93BD
:10312000DF93CF931F930F930E94580621968DB77C
:103130009EB708960FB6F8949EBF0FBE8DBFC031E4
:10314000D10529F7DF91CF911F910F91FF90EF905B
:10315000089508950895CF93DF93CDB7DEB72B97E9
:103160000FB6F894DEBF0FBECDBF942F4F83252F2F
:10317000588769877A878B874A855B85452B31F02D
:103180002F3F31F481E09F3F19F403C081E001C07B
:1031900080E080FD07C04F81588569857A858B85E1
:1031A0000E94A323DE01119686E0FD0111928A950B
:1031B000E9F785E0FE01379601900D928A95E1F7D7
:1031C00049815A816B817C818D819E810E949E1FE5
:1031D0002B960FB6F894DEBF0FBECDBFDF91CF9117
:1031E0000895CF93882309F465C0C82F8CEF8C0F06
:1031F000813A20F080E58C0F8E3248F48C2F0E94AB
:10320000DC25811157C08C2F0E9486220CC080E2E1
:103210008C0F883058F4C77081E001C0880FCA95C0
:10322000EAF70E942B23CF910C9465238BE58C0F3A
:10323000833078F4C53A29F0C63A31F083E890E05B
:1032400005C081E890E002C082E890E0CF910C9444
:10325000711788E58C0F873168F5C83A89F0C93A4B
:1032600091F0CA3A99F0CB3AA1F0CC3AA9F0CD3A14
:10327000B1F0CE3AB9F0CF3AC1F080E090E017C09B
:1032800082EE90E014C089EE90E011C08AEE90E0EA
:103290000EC085EB90E00BC086EB90E008C083EB9E
:1032A00090E005C084EB90E002C087EB90E0CF9106
:1032B0000C949E17CF910895882349F19CEF980FA5
:1032C000913A20F090E5980F9E3218F40E94D62291
:1032D0000DC090E2980F983058F4877091E001C0CB
:1032E000990F8A95EAF7892F0E9431230C94652360
:1032F0009BE5980F933020F480E090E00C947117D8
:10330000885A873120F480E090E00C949E1708954D
:10331000882321F00E942B230C9465230895882391
:1033200021F00E9431230C94652308950E944B23C1
:103330000E941A230E94652380E090E00E9471178A
:1033400080E090E00C949E170E943B230C94961909
:10335000CF92DF92EF92FF920F931F93CF93DF9361
:1033600000D000D01F92CDB7DEB76C010E94B6230B
:103370008111EAC285E0F601DE01119601900D92FD
:103380008A95E1F7F601408151812381348121152D
:10339000310531F05F3F31F481E04F3F19F403C054
:1033A00081E001C080E080FDCFC2F601F280E580BF
:1033B000E2948FE0E82249835A83FB82722F3D8397
:1033C0002C836F2D8D810E9402228C010E9401228C
:1033D0000E94F120E12FE295EF708E2F90E0FC012A
:1033E000E75BFE4F0C942F26812F807F1F70882370
:1033F00011F01295107FFF2049F0112309F43BC210
:10340000812F0E943E230E94652335C2802F0E9497
:103410005C19112309F498C2812F0E9444230F9054
:103420000F900F900F900F90DF91CF911F910F9100
:10343000FF90EF90DF90CF900C946523812F807FD9
:103440001F70803211F01295107F002319F00130A7
:1034500009F12BC0FF20A9F0EE2059F1F1E0812FF6
:10346000EF1228C00F900F900F900F900F90DF91E8
:10347000CF911F910F91FF90EF90DF90CF900C9420
:103480004E23EE2021F021E0E21609F45DC20E94F5
:1034900051232DC0FF20E9F085E08E1508F454C2B9
:1034A0000E942823812329F022C0FF20F1F0E1109F
:1034B00015C0812F0F900F900F900F900F90DF91FC
:1034C000CF911F910F91FF90EF90DF90CF900C94D0
:1034D000881994E09E1508F437C209C0F601858169
:1034E00080FFC9C18F708583E4CFE110D7C1812FE0
:1034F0004AC1812F86958695837019F08130B9F085
:1035000023C2FF2019F0C801937002C080E090E050
:103510000F900F900F900F900F90DF91CF911F9110
:103520000F91FF90EF90DF90CF900C947117FF20D8
:1035300019F0C801937002C080E090E00F900F90E6
:103540000F900F900F90DF91CF911F910F91FF90EF
:10355000EF90DF90CF900C949E17812F837009F02D
:1035600070C0F110F1C1202F229526952770220FEF
:10357000220F602F6F70862F90E0A0E0B0E06C010A
:103580007D01022E04C0CC0CDD1CEE1CFF1C0A9435
:10359000D2F704FF12C08FE090E0A0E0B0E004C0DA
:1035A000880F991FAA1FBB1F2A95D2F7BC01CD0116
:1035B000609570958095909503C060E070E0CB01B8
:1035C0001695169513701230B1F040F56C297D29CF
:1035D0008E299F29113031F10F900F900F900F908D
:1035E0000F90DF91CF911F910F91FF90EF90DF909F
:1035F000CF900C9416216C297D298E299F290F903C
:103600000F900F900F900F90DF91CF911F910F911E
:10361000FF90EF90DF90CF900C9430210E94162104
:10362000C701B6010F900F900F900F900F90DF9190
:10363000CF911F910F91FF90EF90DF90CF900C945E
:10364000FC20FF2019F0812F817001C0869588230E
:1036500009F47AC1202F229526952770220F220F78
:10366000602F6F70862F90E0A0E0B0E06C017D01CC
:10367000022E04C0CC0CDD1CEE1CFF1C0A94D2F7F9
:1036800004FF12C08FE090E0A0E0B0E004C0880F1B
:10369000991FAA1FBB1F2A95D2F7BC01CD016095C7
:1036A00070958095909503C060E070E0CB01169511
:1036B000169513701230B1F040F56C297D298E29D2
:1036C0009F29113031F10F900F900F900F900F90B4
:1036D000DF91CF911F910F91FF90EF90DF90CF90EE
:1036E0000C94DD216C297D298E299F290F900F9044
:1036F0000F900F900F90DF91CF911F910F91FF903E
:10370000EF90DF90CF900C94EF210E94DD21C70154
:10371000B6010F900F900F900F900F90DF91CF9107
:103720001F910F91FF90EF90DF90CF900C94CB21E1
:10373000003FC1F128F480E4800F803250F096C041
:10374000023F09F45EC008F449C0033F09F46CC0AD
:103750008DC0F02FF071EF2E812F8F71FF2051F06F
:103760000E946421802FEE2019F08295807FA2CEE6
:103770008F70A0CE0E948521802FEE2019F08295B7
:10378000807F01C08F700F900F900F900F900F905F
:10379000DF91CF911F910F91FF90EF90DF90CF902D
:1037A0000C948F19FF20A9F024E02E1508F4CCC04A
:1037B000812F8F710F900F900F900F900F90DF91CE
:1037C000CF911F910F91FF90EF90DF90CF900C94CD
:1037D000AA2185E08E1508F4B7C0EACFFF2099F042
:1037E000812F8F710F900F900F900F900F90DF919E
:1037F000CF911F910F91FF90EF90DF90CF900C949D
:103800006421FF2069F3812F8F710F900F900F902B
:103810000F900F90DF91CF911F910F91FF90EF903C
:10382000DF90CF900C948521FF2089F0812F8F713C
:103830000F900F900F900F900F90DF91CF911F91ED
:103840000F91FF90EF90DF90CF900C944F210F904D
:103850000F900F900F900F90DF91CF911F910F91CC
:10386000FF90EF90DF90CF900C944A21FF2099F0C9
:10387000EE2009F4B5CF802F0F900F900F900F908E
:103880000F90DF91CF911F910F91FF90EF90DF90FC
:10389000CF900C94F118EE2009F4B5CF802F0F9043
:1038A0000F900F900F900F90DF91CF911F910F917C
:1038B000FF90EF90DF90CF900C945C19412F4F70E8
:1038C000602FC6010E9477240F900F900F900F90E9
:1038D0000F90DF91CF911F910F91FF90EF90DF90AC
:1038E000CF900C944C2001112FC0FF2069F10E9451
:1038F000A4199FEFE0E7F2E09150E040F040E1F7DB
:1039000000C000000F900F900F900F900F90DF916C
:10391000CF911F910F91FF90EF90DF90CF900C947B
:103920005824412F4F70602FC6010F900F900F90B9
:103930000F900F90DF91CF911F910F91FF90EF901B
:10394000DF90CF900C947A240F900F900F900F90EF
:103950000F90DF91CF911F910F91FF90EF90DF902B
:10396000CF9008951F93CF93DF9300D000D01F9284
:10397000CDB7DEB7942F4983252F5A836B837C8381
:103980008D834C815D81452B31F02F3F31F481E0F7
:103990009F3F19F403C081E001C080E0182F11702F
:1039A00080FD31C049815A816B817C818D810E946B
:1039B0000222292F22952F702C3030F42A30A0F4C7
:1039C0002250223030F022C02C30C9F02F30B9F014
:1039D0001DC0853A28F48430C0F4823028F415C024
:1039E00090E2980F983088F0883E30F4803E68F47A
:1039F0008450813A58F409C0803F41F406C093FBDB
:103A0000112710F903C010E001C011E0812F0F90C1
:103A10000F900F900F900F90DF91CF911F9108950D
:103A2000CF93DF9300D000D01F92CDB7DEB70F90B9
:103A30000F900F900F900F90DF91CF910895CF933B
:103A4000DF9300D000D000D0CDB7DEB726960FB6FA
:103A5000F894DEBF0FBECDBFDF91CF9108951F93C5
:103A6000CF93DF93C091920216E080919302C81722
:103A700099F0D0E01C9FF0011D9FF00D1124EC5631
:103A8000FD4F4081518162817381848195810E94C3
:103A90001F1D2196C770E9CFDF91CF911F91089527
:103AA0004091C4025091C5026091C6027091C70254
:103AB0008091C8029091C9020C941F1D0F931F930F
:103AC000CF93DF938091C90282958F7009F05DC01A
:103AD0008091C602882309F458C080919202109107
:103AE00093026091C4027091C502C091C702D09147
:103AF000C80291E06F3F09F090E0292F06E081179E
:103B000009F443C0209721F07F3F21F030E003C04B
:103B100031E001C0322F90E030FD34C0089FF00149
:103B2000099FF00D1124DF01AC56BD4F11963C9159
:103B30001197371327C03C91361324C012963C913D
:103B4000129731111FC013964D915C9114974C1B25
:103B50005D0B483C5105B0F48091C9028F708061C3
:103B60008093C902E756FD4F80818F70806180830A
:103B700084EC92E00E94A819DF91CF911F910F91E0
:103B80000C942F1D01968770BACFDF91CF911F91B2
:103B90000F9108959F92AF92BF92CF92DF92EF92D2
:103BA000FF920F931F93CF93DF93CDB7DEB761974B
:103BB0000FB6F894DEBF0FBECDBF8C0185E0F801D3
:103BC000DE011D9601900D928A95E1F7F801408182
:103BD0005181F280C380D4809091C4026091C5026B
:103BE0002091C7023091C8022115310531F06F3F95
:103BF00031F481E09F3F19F403C081E001C080E00F
:103C0000F82FF1709F2E80FD52C184ECA82E82E027
:103C1000B82EE090C602F601E21BF30BEE2009F489
:103C2000E8C08091C902E83CF10508F0A4C0282F43
:103C3000207F09F053C0561313C0491311C0EF2C55
:103C4000F1100EC08F7080618093C9020E94501DD8
:103C5000C5010E94A8198091C902F80185835BC142
:103C6000C114D10431F05F3F31F481E04F3F19F4CA
:103C700003C081E001C080E080FD03C081E08F25AA
:103C800002C080E090E0F82FF170EF2E80FF1CC0A2
:103C9000809192022091930236E0821709F418C1B4
:103CA00090E0389FF001399FF00D1124EC56FD4F44
:103CB0006181561306C06081461303C06281F6120B
:103CC00003C001968770E9CFEF2CFF2009F423C1D0
:103CD0008091C90281608093C90262C0561306C0F8
:103CE000491304C0F11002C0F801A7C04D875E87D8
:103CF000FF867C2DD98AC88A6F2D89890E94B21CC3
:103D0000882399F1FF2089F12091C902822F8295A1
:103D10008F7090E0029774F08091C4029091C50278
:103D200098878F831986DB86CA862C87CE010796F3
:103D30000E94A81986E0F801A4ECB2E001900D926F
:103D40008A95E1F70E945E1D0E94501D11C0561712
:103D500049F14D875E87FF867C2DD98AC88A6F2DF1
:103D600089890E94B21C81112CC0C8010E94A81927
:103D7000EE24E394D0C0282F207F49F77C2DD98AE8
:103D8000C88A6F2D89890E94101D84EC92E00E94E0
:103D9000A81986E0F50111928A95E9F70E94501D55
:103DA000E12CB9C04913D5CFF110D3CFF8018583E9
:103DB000C8010E94A81986E0F50111928A95E9F7D9
:103DC000AAC0FF2091F22091C902822F82958F70A4
:103DD00090E002970CF4AECF8091C4029091C5029E
:103DE0009A8389831B82DD82CC822E83CE01019649
:103DF0009FCFE83CF10508F04BC0EF2CFF2009F401
:103E0000B4CF561330C049132EC02091C90220FDF3
:103E100021C0822F82958F70482F50E041155105A7
:103E2000C9F0F80125834F30510541F08F5F982F7D
:103E30009295907F822F8F70892B8583C8010E9475
:103E4000A81986E0F801A4ECB2E001900D928A95E1
:103E5000E1F72AC086E0F801A4ECB2E001900D92EF
:103E60008A95E1F758C04D875E87FF867C2DD98AF9
:103E7000C88A6F2D89890E94B21C81115BCF809105
:103E8000C90281608093C902C8010E94A81943C079
:103E90007C2DD98AC88A6F2D89890E94101D86E0E1
:103EA000F50111928A95E9F70E94501D34C0FF2058
:103EB00009F45BCF4D875E87FF867C2DD98AC88A3F
:103EC0006F2D89890E94B21C882309F44ECF32CF0E
:103ED0007C2DD98AC88A6F2D89890E940222292FB8
:103EE00022952F70223028F49F7039F0811105C07F
:103EF0000BC0243028F49F7049F4805E883020F095
:103F0000C8010E94A8199E2CE92C05C0F8019581D2
:103F1000907F99F7F9CF8E2D61960FB6F894DEBF9A
:103F20000FBECDBFDF91CF911F910F91FF90EF900A
:103F3000DF90CF90BF90AF909F9008951F93CF9345
:103F4000DF93CDB7DEB72C970FB6F894DEBF0FBE68
:103F5000CDBF4F83588769877A878B879C87CE012F
:103F600007960E94CA1D8823D1F09F8188852A85E3
:103F70003B85232B31F08F3F31F481E09F3F19F4D3
:103F800003C081E001C080E080FD47C04F815885BB
:103F900069857A858B859C850E941F1D3EC086E0C1
:103FA000FE013796DE01119601900D928A95E1F798
:103FB000FF81E8856A857B856115710531F0EF3FEA
:103FC00031F481E0FF3F19F403C081E001C080E0DB
:103FD00080FD23C02091930230E0C90101968770D3
:103FE00099274091920250E084179507F1F1F983E7
:103FF000EA837D836C8396E0929FD001939FB00DFE
:104000001124AC56BD4FFE01319601900D929A9548
:10401000E1F7809393020E942F1D16E08091920297
:1040200090919302891771F1189FC00111248C5649
:104030009D4F0E94CA1D882329F1E09192021E9F84
:10404000F0011124EC56FD4F408151816281738152
:10405000848195810E941F1D8091920290E00196BB
:104060008770992780939202D9CF0E94A419109249
:10407000930210929202E4ECF2E086E0DF011D92DE
:104080008A95E9F72C960FB6F894DEBF0FBECDBF28
:10409000DF91CF911F910895DF92EF92FF920F93DE
:1040A0001F93CF93DF93FC01892B09F488C0E12C87
:1040B000F12CDD24D394EF0121968491853709F406
:1040C00060C058F4843708F04EC0843008F068C0EF
:1040D0008130D1F0823071F172C0883709F45BC051
:1040E00050F4863709F453C0873709F068C08E2D25
:1040F0000E94382352C09CE7980F903708F05FC0A9
:104100008F770E945C194EC08F010E5F1F4FFE011A
:10411000849190E2980F983050F48770FD2D01C083
:10412000FF0F8A95EAF78F2F0E943E2315C00E9449
:10413000F11814C08F010E5F1F4FFE01849190E2B1
:10414000980F983068F48770FD2D01C0FF0F8A9595
:10415000EAF78F2F0E9444230E946523E80122C0C2
:104160000E945C19FBCFCF010296FE01C491CC23C3
:1041700061F0EFE9FFE03197F1F700C00000C150B6
:10418000F6CFCF010296FE01F490EC010BC00E9425
:104190002823E82E07C00E943B230E94652302C00B
:1041A0000E94F1188F2D882341F0EFE9FFE031974D
:1041B000F1F700C000008150F6CFFE017CCFDF9107
:1041C000CF911F910F91FF90EF90DF900895609332
:1041D0004A0370934B0380934C0390934D030C94CC
:1041E000B323089560934E0370934F03809350035D
:1041F000909351030C94B2230F931F9300914E039D
:1042000010914F032091500330915103602B712B7B
:10421000822B932B60934E0370934F038093500334
:10422000909351031F910F910C94B2230F931F93FE
:1042300000914E0310914F03209150033091510390
:10424000602371238223932360934E0370934F0363
:1042500080935003909351031F910F910C94B223BC
:104260000F931F9300914E0310914F032091500321
:1042700030915103602771278227932760934E0363
:1042800070934F0380935003909351031F910F91AC
:104290000C94B22360E070E0CB010C94E7200F9304
:1042A0001F9341E050E060E070E08A019B0104C090
:1042B000000F111F221F331F8A95D2F7C901B801C1
:1042C0001F910F910C94E7200F931F9341E050E052
:1042D00060E070E004C0440F551F661F771F8A9589
:1042E000D2F780914A0390914B03A0914C03B09177
:1042F0004D038A019B01082B192B2A2B3B2BC9014B
:10430000B8011F910F910C94E7200F931F9341E088
:1043100050E060E070E004C0440F551F661F771F37
:104320008A95D2F7409550956095709580914A0393
:1043300090914B03A0914C03B0914D038A019B01D6
:10434000082319232A233B23C901B8011F910F9188
:104350000C94E7200F931F9341E050E060E070E081
:1043600004C0440F551F661F771F8A95D2F78091AE
:104370004A0390914B03A0914C03B0914D038A01E5
:104380009B01082719272A273B27C901B8011F913C
:104390000F910C94E7200F931F9300914A03109103
:1043A0004B0320914C0330914D03602B712B822BDA
:1043B000932B1F910F910C94E7200F931F93009163
:1043C0004A0310914B0320914C0330914D0360231D
:1043D0007123822393231F910F910C94E7200F9355
:1043E0001F9300914A0310914B0320914C0330918D
:1043F0004D0360277127822793271F910F910C94FB
:10440000E72008958F929F92AF92BF92DF92EF9232
:10441000FF920F931F93CF93DF9300D000D01F9292
:10442000CDB7DEB76B837C838D838A018C819D81C0
:10443000892B31F01F3F31F481E04F3F19F403C065
:1044400081E001C080E080FF03C080E090E04DC0CB
:104450008B818823D1F180904A0390904B03A090E8
:104460004C03B0904D0380914E0390914F03A09167
:104470005003B0915103882A992AAA2ABB2A8FE1B6
:10448000E82EF12CD501C4010E2C04C0B695A795D9
:10449000979587950A94D2F780FD06C081E0E81AC7
:1044A000F10880F7D12C07C0DE2CB8018E2D0E94B8
:1044B0006106019799F388E0189FF0011124E653F3
:1044C000FD4FE00FF11DD08209C088E0189FF00178
:1044D0001124E653FD4FE00FF11DD08009831A83AC
:1044E00069817A818D2D0E9461060F900F900F9047
:1044F0000F900F90DF91CF911F910F91FF90EF9050
:10450000DF90BF90AF909F908F900895909114018D
:10451000992379F190911501992359F1982F969546
:10452000969596959F31A1F0E0911601F0911701B3
:10453000E90FF11D877021E030E0A90102C0440FAE
:10454000551F8A95E2F7CA019181892B81830895CD
:104550009091750390FF29C01F928F9380E997E097
:104560009F938F930E9458060F900F900F900F907B
:1045700008952091160130911701F90132969FEFAD
:1045800040E05191851789F09F3F19F4511101C006
:10459000942F4F5F4E31A9F79F3F39F0F901E90F92
:1045A000F11D97FDFA958283089508959091140165
:1045B000992381F190911501992361F1982F969596
:1045C000969596959F31A9F0E0911601F09117010B
:1045D000E90FF11D877021E030E0A90102C0440F0E
:1045E000551F8A95E2F7CA018095918189238183BD
:1045F00008959091750390FF1CC01F928F9382E7DE
:1046000097E09F938F930E9458060F900F900F9002
:104610000F900895E0911601F09117019F01225E1D
:104620003F4F9281891301C012823196E217F3073E
:10463000C1F7089581E090E0E0911601F091170133
:10464000E80FF91F1082019680329105A9F70895AD
:1046500080917403089590917403892B809374035F
:10466000089580959091740389238093740308952D
:1046700080937403089510927403089590917303C6
:10468000892B8093730308958095909173038923F8
:1046900080937303089510927303089580935203D7
:1046A0000895109252030895809116019091170178
:1046B000FC0131969C01205E3F4F80E09191911169
:1046C0008F5FE217F307D1F70895E0911601F0919B
:1046D0001701809174038083E0911601F091170116
:1046E000908180917303892B80838091520388236A
:1046F00061F0E0911601F09117019081892B808380
:104700000E945423811110925203809116019091BE
:1047100017010C9428179093350180933401089564
:104720008295982F937344E0949F900111248C7C80
:1047300086958695282B822F8575880F2A7A26954F
:10474000822B08950895CF93DF9300D000D01F925D
:10475000CDB7DEB70F900F900F900F900F90DF91B5
:10476000CF910895089508950C94721880E00895EB
:1047700083B7817F8C6083BF83B7816083BF789468
:10478000889583B78E7F83BF0895CF930E94A91821
:104790000E94280B0E94AA18C0E08C2F0E940B0BCD
:1047A000811104C0CF5FC031C1F701C081E0CF915A
:1047B00008950E94110B0C94A4191F920F920FB62A
:1047C0000F9211248F939F93AF93BF9380917603A1
:1047D00090917703A0917803B09179034196A11D40
:1047E000B11D8093760390937703A0937803B093E1
:1047F0007903BF91AF919F918F910F900FBE0F9052
:104800001F90189582E084BD93E095BD9AEF97BD07
:1048100080936E0008952FB7F8948091760390915D
:104820007703A0917803B09179032FBF08952FB734
:10483000F89460917603709177038091780390915A
:1048400079032FBF08959C014FB7F89480917603A8
:1048500090917703A0917803B09179034FBF821BA9
:10486000930B089578941F920F920FB60F92112414
:104870008F939F93AF93BF9380917603909177032B
:10488000A0917803B09179030196A11DB11D809389
:10489000760390937703A0937803B0937903BF9145
:1048A000AF919F918F910F900FBE0F901F90189511
:1048B0000E94B315F89487E797E7909301088093D7
:1048C000000887E090EBDC018093880390938903D4
:1048D000A0938A03B0938B039CE088E10FB6F89411
:1048E000A895809360000FBE90936000FFCF80E09A
:1048F00090E008950895CF93C82F1F928F9384EB73
:1049000097E09F938F930E94580681E090E0A0E08B
:10491000B0E0BC01CD0104C0660F771F881F991F4E
:10492000CA95D2F70E94F2200F900F900F900F902F
:10493000CF910C94A419CF938732A8F58E3108F04B
:104940002BC1803109F49FC0F8F4873009F464C0AA
:10495000A8F4863009F024C180917503817F8E7F91
:104960008093750389EB97E00E94BF058BE99AE07D
:104970000E94BF0581E080937A034CC08B30F1F137
:104980008E3009F46CC00CC1863109F4B0C020F43B
:10499000813109F4EDC004C1893109F491C08B3132
:1049A00009F449C0FDC0883349F150F4893209F453
:1049B000F1C0853309F4EEC0873209F0F1C0EAC0D6
:1049C000833409F4E7C028F48A3308F4E9C0895332
:1049D000E4C0883409F0E4C00E94A4198AE89AE08F
:1049E0000E94BF052FEF83ED90E32150804090405F
:1049F000E1F700C000000E9458240CC084ED97E04D
:104A00005CC081E79AE00E94BF05809175038160D8
:104A100080937503C1E0C9C080917503C82FC17030
:104A200080FFEFCF8DE79AE00E94BF05809175036C
:104A3000817F8E7F3DC09091750391FBCC27C0F99B
:104A400081E0C827892FC0FB81F980937503CC23AF
:104A500019F084E69AE027C086E59AE02EC090918E
:104A6000750392FBCC27C0F981E0C827892FC0FBD2
:104A700082F980937503CC2319F087E49AE013C080
:104A800087E39AE01AC09091750393FBCC27C0F995
:104A900081E0C827892FC0FB83F980937503CC235D
:104AA00051F08BE29AE00E94BF058091750381600E
:104AB000809375037AC08EE19AE00E94BF05AACF69
:104AC0008FE09AE00E94BF0589EE99E00E94BF0541
:104AD00081EA99E00E94BF0589E799E00E94BF053D
:104AE0008DE299E00E94BF0582E099E0E6CF84EF75
:104AF00098E00E94BF050E941C171F928F938AEDB9
:104B000098E09F938F930E945806809114011F9202
:104B10008F9383EC98E09F938F930E945806809127
:104B20007A021F928F9380EB98E09F938F930E945D
:104B30005806809115011F928F938DE998E09F93FD
:104B40008F930E9458060E9417249F938F937F9300
:104B50006F9386E898E09F938F930E9458068DB7D5
:104B60009EB746960FB6F8949EBF0FBE8DBF52CF2C
:104B70000E94A419C091150181E0C827C0931501B6
:104B8000CC2329F08CE798E00E94BF050EC081E796
:104B900098E093CF80E001C08D510E947B243ACFF2
:104BA0008FE698E00E94BF05C0E08C2FCF9108955A
:104BB00080E008950C94D825CF93C82F80917A0374
:104BC000882319F0813059F042C0E0911601F0912C
:104BD00017018081823261F08434D9F509C0E091F7
:104BE0001601F09117018081823211F0843461F452
:104BF0008C2F0E94DA25811104C08C2F0E949B24E7
:104C000024C081E090E021C08C2F0E94D825811122
:104C10001BC0C43189F018F4CB3029F010C0C93260
:104C200059F0C83361F489EB97E00E94BF0580EB2F
:104C300097E00E94BF0508C010927A030CC08EEA6C
:104C400097E00E94BF0507C081E0817006C0109206
:104C50007A0380E002C080E0F8CFCF910895EE0F94
:0E4C6000FF1F0590F491E02D0994F894FFCF0A
:104C6E000080FFFF0559010000FFD30E400FD60E46
:104C7E000B0FD70E0101530340362239DA06A40674
:104C8E0082064906D505EE05070627060000080030
:044C9E00040002000C
:106800008800EA44E944E244040005000600070069
:10681000080009000A000B000C000D000E000F001C
:1068200010001100120013001400150016001700CC
:10683000180019001A001B001C001D001E001F007C
:10684000200021002200230024002500260027002C
:10685000280029002A002B002C002D002E002F00DC
:10686000300031003200330034003500360037008C
:10687000380039003A003B003C003D003E003F003C
:1068800040004100420043004400450046004700EC
:10689000480049004A004B004C004D004E004F009C
:1068A000500051005200530054005500560057004C
:1068B000580059005A005B005C005D005E005F00FC
:1068C0006000610062006300640065A185006700EC
:1068D000680069006A006B006C006D006E006F005C
:1068E0007000710072007300890087008A008B00BD
:1068F000E000E100E200E300E400E500E600E7007C
:106900000100010001000100EA4401000100E2442D
:106910000100010001000100460001004A004B0097
:10692000010001004700480001000100E9440100A6
:106930000100010001000100010001003A003B00DC
:106940003C003D003E003F0040004100420043004B
:10695000010035004C0039000100440045005200A0
:1069600049000100010050004F0029004D004E0079
:1069700051000100010001000100010001000100BF
:1069800001000100010001000100010001000100FF
:1069900001000100010001000100010001004D00A3
:1069A0004A004E004B0001000100010001000100FF
:1069B00001000100010001000100010001000100CF
:1069C00001000100010001000100010001000100BF
:1069D00001000100010001000100010001000100AF
:1069E0000100010001000100490001000100010057
:1069F000010001000100010001000100010001008F
:00000001FF
